:1000000010940120E10400009B1A00002D0500005F
:100010002505000025050000250500000000000062
:10002000000000000000000000000000310500009A
:10003000250500000000000035050000390500001E
:100040003D05000041050000450500004905000090
:100050004D05000051050000550500005905000040
:100060005D050000610500006505000069050000F0
:100070006D050000710500007505000079050000A0
:100080007D05000025050000250500002505000070
:1000900025050000250500002505000025050000B8
:1000A0008105000085050000890500008D05000020
:1000B0009105000095050000990500009D050000D0
:1000C000A1050000A5050000A9050000AD05000080
:1000D000B1050000B5050000B905000025050000C8
:1000E0002505000025050000250500002505000068
:1000F0002505000025050000250500002505000058
:100100002505000025050000250500002505000047
:100110002505000025050000250500002505000037
:100120002505000025050000250500002505000027
:100130002505000025050000250500002505000017
:1001400025050000BD050000C1050000C505000033
:10015000C9050000CD0500002505000025050000AB
:100160002505000025050000D1050000D50500008B
:10017000D9050000DD050000E1050000E5050000EF
:10018000E9050000ED050000F1050000F50500009F
:10019000F9050000FD05000025050000250500000B
:1001A00025050000250500002505000025050000A7
:1001B0002505000025050000250500002505000097
:1001C0002505000025050000250500002505000087
:1001D0002505000025050000250500002505000077
:1003F000250500002505000025050000FFFFFFFF83
:10040000FFFFFFFFFFFFFFFFFFFFFFFFFEFFFFFFFD
:1004100010B5054C237833B9044B13B10448AFF33E
:1004200000800123237010BDC008002000000000E0
:1004300008AF0000084B10B51BB108480849AFF3DE
:1004400000800848036803B910BD074B002BFBD0A0
:10045000BDE81040184700BF0000000008AF0000D2
:10046000C4080020B408002000000000154B002B39
:1004700008BF134B9D46A3F5803A00218B460F46DB
:100480001348144A121A03F0CBFE0F4B002B00D076
:1004900098470E4B002B00D0984700200021040005
:1004A0000D000D48002802D00C4807F083FE03F031
:1004B000A3FB2000290001F0A8FB03F0CFF800BF48
:1004C000000008001094012000000000011C000042
:1004D000C008002010140020B58100002592000003
:1004E00072B60948094901600948804709490A4A22
:1004F0000A4B9A42BEBF51F8040B42F8040BF8E7CE
:1005000062B607488047000008ED00E000000000E8
:10051000A91C000038AF000000000020B80800202F
:100520006D040000FFF7FEBF35480047354800471F
:1005300035480047354800473548004735480047AB
:10054000354800473548004735480047354800479B
:10055000354800473548004735480047354800478B
:10056000354800473548004735480047354800477B
:10057000354800473548004735480047354800476B
:10058000354800473548004735480047354800475B
:10059000354800473548004735480047354800474B
:1005A000354800473548004735480047354800473B
:1005B000354800473548004735480047354800472B
:1005C000354800473548004735480047354800471B
:1005D000354800473548004734480047334800470E
:1005E000324800473148004730480047304800470C
:1005F00030480047304800473048004730480047FF
:100600009B1A00002D050000310500003505000093
:10061000390500002505000025050000250500001E
:100620002505000025050000250500002505000022
:100630002505000025050000250500002505000012
:100640002505000025050000250500002505000002
:100650002505000025050000A5350000B93500007E
:1006600025050000250500002505000025050000E2
:1006700025050000012C0000250500001D2C0000B0
:1006800025050000392C000025050000552C000030
:100690002505000025050000712C0000250500003F
:1006A0008D2C000025050000CD350000250500003B
:1006B0002505000025050000250500002505000092
:1006C00025050000844641EA000313F003036DD1C1
:1006D000403A41D351F8043B40F8043B51F8043B05
:1006E00040F8043B51F8043B40F8043B51F8043B0C
:1006F00040F8043B51F8043B40F8043B51F8043BFC
:1007000040F8043B51F8043B40F8043B51F8043BEB
:1007100040F8043B51F8043B40F8043B51F8043BDB
:1007200040F8043B51F8043B40F8043B51F8043BCB
:1007300040F8043B51F8043B40F8043B51F8043BBB
:1007400040F8043B51F8043B40F8043B51F8043BAB
:1007500040F8043B403ABDD2303211D351F8043B4B
:1007600040F8043B51F8043B40F8043B51F8043B8B
:1007700040F8043B51F8043B40F8043B103AEDD2FA
:100780000C3205D351F8043B40F8043B043AF9D24B
:10079000043208D0D2071CBF11F8013B00F8013B1E
:1007A00001D30B8803806046704700BF082A13D32B
:1007B0008B078DD010F003038AD0C3F10403D21A43
:1007C000DB071CBF11F8013B00F8013B80D331F877
:1007D000023B20F8023B7BE7043AD9D3013A11F8F7
:1007E000013B00F8013BF9D20B7803704B78437062
:1007F0008B7883706046704781F0004102E000BF53
:1008000083F0004330B54FEA41044FEA430594EAD0
:10081000050F08BF90EA020F1FBF54EA000C55EA0B
:10082000020C7FEA645C7FEA655C00F0E2804FEADC
:100830005454D4EB5555B8BF6D420CDD2C4480EABE
:10084000020281EA030382EA000083EA010180EAEE
:10085000020281EA0303362D88BF30BD11F0004F3C
:100860004FEA01314FF4801C4CEA113102D0404272
:1008700061EB410113F0004F4FEA03334CEA1333AD
:1008800002D0524263EB430394EA050F00F0A780C5
:10089000A4F10104D5F1200E0DDB02FA0EFC22FAC0
:1008A00005F2801841F1000103FA0EF2801843FAB4
:1008B00005F359410EE0A5F120050EF1200E012AA5
:1008C00003FA0EFC28BF4CF0020C43FA05F3C018E3
:1008D00051EBE37101F0004507D54FF0000EDCF15C
:1008E000000C7EEB00006EEB0101B1F5801F1BD305
:1008F000B1F5001F0CD349085FEA30004FEA3C0C09
:1009000004F101044FEA445212F5800F80F09A80FE
:10091000BCF1004F08BF5FEA500C50F1000041EB02
:10092000045141EA050130BD5FEA4C0C404141EB06
:10093000010111F4801FA4F10104E9D191F0000F2D
:1009400004BF01460020B1FA81F308BF2033A3F1B0
:100950000B03B3F120020CDA0C3208DD02F1140CA7
:10096000C2F10C0201FA0CF021FA02F10CE002F1E2
:100970001402D8BFC2F1200C01FA02F120FA0CFCDB
:10098000DCBF41EA0C019040E41AA2BF01EB045124
:10099000294330BD6FEA04041F3C1CDA0C340EDC22
:1009A00004F11404C4F1200220FA04F001FA02F365
:1009B00040EA030021FA04F345EA030130BDC4F123
:1009C0000C04C4F1200220FA02F001FA04F340EA18
:1009D0000300294630BD21FA04F0294630BD94F0C9
:1009E000000F83F4801306BF81F480110134013DB0
:1009F0004EE77FEA645C18BF7FEA655C29D094EA21
:100A0000050F08BF90EA020F05D054EA000C04BF9E
:100A10001946104630BD91EA030F1EBF0021002089
:100A200030BD5FEA545C05D14000494128BF41F028
:100A3000004130BD14F580043CBF01F5801130BD8C
:100A400001F0004545F0FE4141F470014FF0000017
:100A500030BD7FEA645C1ABF194610467FEA655CC8
:100A60001CBF0B46024650EA013406BF52EA03356A
:100A700091EA030F41F4002130BD00BF90F0000F58
:100A800004BF0021704730B54FF4806404F1320494
:100A90004FF000054FF0000150E700BF90F0000F4D
:100AA00004BF0021704730B54FF4806404F1320474
:100AB00010F0004548BF40424FF000013EE700BF44
:100AC00042004FEAE2014FEA31014FEA02701FBFD4
:100AD00012F07F4393F07F4F81F06051704792F0A6
:100AE000000F14BF93F07F4F704730B54FF4607420
:100AF00001F0004521F0004120E700BF50EA01026B
:100B000008BF704730B54FF000050AE050EA010217
:100B100008BF704730B511F0004502D5404261EB87
:100B200041014FF4806404F132045FEA915C3FF4C8
:100B3000DCAE4FF003025FEADC0C18BF03325FEA61
:100B4000DC0C18BF033202EBDC02C2F1200300FA16
:100B500003FC20FA02F001FA03FE40EA0E0021FA3B
:100B600002F11444C1E600BF70B54FF0FF0C4CF425
:100B7000E06C1CEA11541DBF1CEA135594EA0C0FDB
:100B800095EA0C0F00F0DEF82C4481EA030621EA16
:100B90004C5123EA4C5350EA013518BF52EA033551
:100BA00041F4801143F4801338D0A0FB02CE4FF003
:100BB0000005E1FB02E506F00042E0FB03E54FF033
:100BC0000006E1FB03569CF0000F18BF4EF0010E2B
:100BD000A4F1FF04B6F5007F64F5407404D25FEA27
:100BE0004E0E6D4146EB060642EAC62141EA5551DA
:100BF0004FEAC52040EA5E504FEACE2EB4F1FD0C1C
:100C000088BFBCF5E06F1ED8BEF1004F08BF5FEA99
:100C1000500E50F1000041EB045170BD06F000464B
:100C200046EA010140EA020081EA0301B4EB5C04F8
:100C3000C2BFD4EB0C0541EA045170BD41F48011F0
:100C40004FF0000E013C00F3AB8014F1360FDEBF15
:100C5000002001F0004170BDC4F10004203C35DAF1
:100C60000C341BDC04F11404C4F1200500FA05F374
:100C700020FA04F001FA05F240EA020001F0004215
:100C800021F0004110EBD37021FA04F642EB06018B
:100C90005EEA430E08BF20EAD37070BDC4F10C04B5
:100CA000C4F1200500FA04F320FA05F001FA04F279
:100CB00040EA020001F0004110EBD37041F1000165
:100CC0005EEA430E08BF20EAD37070BDC4F1200570
:100CD00000FA05F24EEA020E20FA04F301FA05F2D8
:100CE00043EA020321FA04F001F0004121FA04F280
:100CF00020EA020000EBD3705EEA430E08BF20EA50
:100D0000D37070BD94F0000F0FD101F00046400089
:100D100041EB010111F4801F08BF013CF7D041EA0B
:100D2000060195F0000F18BF704703F0004652000F
:100D300043EB030313F4801F08BF013DF7D043EAE0
:100D40000603704794EA0C0F0CEA135518BF95EA96
:100D50000C0F0CD050EA410618BF52EA4306D1D11D
:100D600081EA030101F000414FF0000070BD50EA3C
:100D7000410606BF1046194652EA430619D094EAC6
:100D80000C0F02D150EA013613D195EA0C0F05D1B0
:100D900052EA03361CBF104619460AD181EA030104
:100DA00001F0004141F0FE4141F470014FF00000BC
:100DB00070BD41F0FE4141F4780170BD70B54FF057
:100DC000FF0C4CF4E06C1CEA11541DBF1CEA1355D7
:100DD00094EA0C0F95EA0C0F00F0A7F8A4EB0504B9
:100DE00081EA030E52EA03354FEA013100F08880B0
:100DF0004FEA03334FF0805545EA131343EA126379
:100E00004FEA022245EA111545EA10654FEA00262D
:100E10000EF000419D4208BF964244F1FD0404F5E6
:100E2000407402D25B084FEA3202B61A65EB030542
:100E30005B084FEA32024FF480104FF4002CB6EBFF
:100E4000020E75EB030E22BFB61A754640EA0C007F
:100E50005B084FEA3202B6EB020E75EB030E22BFBF
:100E6000B61A754640EA5C005B084FEA3202B6EB00
:100E7000020E75EB030E22BFB61A754640EA9C00BF
:100E80005B084FEA3202B6EB020E75EB030E22BF8F
:100E9000B61A754640EADC0055EA060E18D04FEA4D
:100EA000051545EA16754FEA06164FEAC30343EAED
:100EB00052734FEAC2025FEA1C1CC0D111F4801FBA
:100EC0000BD141EA00014FF000004FF0004CB6E7B3
:100ED00011F4801F04BF01430020B4F1FD0C88BF52
:100EE000BCF5E06F3FF6AFAEB5EB030C04BFB6EB5D
:100EF000020C5FEA500C50F1000041EB045170BD50
:100F00000EF0004E4EEA113114EB5C04C2BFD4EB7C
:100F10000C0541EA045170BD41F480114FF0000E00
:100F2000013C90E645EA060E8DE60CEA135594EA7C
:100F30000C0F08BF95EA0C0F3FF43BAF94EA0C0F7F
:100F40000AD150EA01347FF434AF95EA0C0F7FF4F4
:100F500025AF104619462CE795EA0C0F06D152EA48
:100F600003353FF4FDAE1046194622E750EA41062C
:100F700018BF52EA43067FF4C5AE50EA41047FF43D
:100F80000DAF52EA43057FF4EBAE12E74FF0FF3CA2
:100F900006E000BF4FF0010C02E000BF4FF0010C73
:100FA0004DF804CD4FEA410C7FEA6C5C4FEA430CEC
:100FB00018BF7FEA6C5C1BD001B050EA410C0CBF3B
:100FC00052EA430C91EA030F02BF90EA020F00209D
:100FD000704710F1000F91EA030F58BF994208BF04
:100FE00090422CBFD8176FEAE37040F001007047C1
:100FF0004FEA410C7FEA6C5C02D150EA013C07D118
:101000004FEA430C7FEA6C5CD6D152EA033CD3D062
:101010005DF8040B704700BF8446104662468C465C
:101020001946634600E000BF01B5FFF7B7FF00288F
:1010300048BF10F1000F01BD4DF808EDFFF7F4FFB8
:101040000CBF012000205DF808FB00BF4DF808ED43
:10105000FFF7EAFF34BF012000205DF808FB00BF66
:101060004DF808EDFFF7E0FF94BF012000205DF888
:1010700008FB00BF4DF808EDFFF7CEFF94BF01203D
:1010800000205DF808FB00BF4DF808EDFFF7C4FF36
:1010900034BF012000205DF808FB00BF4FEA410289
:1010A00012F5001215D211D56FF47873B3EB6252BA
:1010B00012D94FEAC12343F0004343EA505311F0E1
:1010C000004F23FA02F018BF404270474FF0000073
:1010D000704750EA013005D111F0004008BF6FF0B1
:1010E000004070474FF00000704700BF4FEA4102D8
:1010F000B2F1E04324BFB3F5001CDCF1FE5C0DD976
:1011000001F0004C4FEAC0024CEA5070B2F1004FBF
:1011100040EB830008BF20F00100704711F0804FC2
:1011200021D113F13872BCBF01F00040704741F487
:1011300080114FEA5252C2F11802C2F1200C10FA8B
:101140000CF320FA02F018BF40F001004FEAC1236F
:101150004FEAD32303FA0CFC40EA0C0023FA02F313
:101160004FEA4303CCE77FEA625307D150EA0133E9
:101170001EBF4FF0FE4040F44000704701F00040B9
:1011800040F0FE4040F40000704700BF53B94AB938
:10119000002908BF00281CBF4FF0FF314FF0FF307F
:1011A00000F03CB882B0EC462DE9005000F01EF88B
:1011B000DDF804E002B00CBC704700BF2DE9F0413F
:1011C000069C154606460F46984600F029F805FB92
:1011D00001F300FB0838A5FB0023B21A434467EB78
:1011E0000303C4E90023BDE8F08100BF2DE9F0410D
:1011F000069C904606460F461D4600F05FF900FB30
:1012000005F5A0FB082308FB0155B21A2B4467EB38
:101210000303C4E90023BDE8F08100BF704700BFAD
:1012200000292DE9F043C0F2A6800026002BC0F271
:101230009C80884694469E46154604460F46002BE1
:101240003DD18A4259D9B2FA82F33BB1C3F12002AF
:101250009F4020FA02F29D4017439C40290C220C2B
:10126000B7FBF1FEA8B201FB1E7742EA074700FB7D
:101270000EF3BB420AD97F190EF1FF3280F00581CF
:10128000BB4240F20281AEF1020E2F44FF1AA4B21B
:10129000B7FBF1F301FB137744EA074700FB03F0C8
:1012A000B84208D97F1903F1FF3280F0F080B842CC
:1012B00040F2ED80023B43EA0E43002203E08B4202
:1012C0000FD900221346341C18BF012460424FF08E
:1012D000000565EB45015840514000196941BDE8E2
:1012E000F083B3FA83F2002A40F086808B4202D367
:1012F000844500F2DB800123E5E712B90123B3FB4B
:10130000F2F5B5FA85F000283BD1781B4FEA154E6F
:101310001FFA85FC0122B0FBFEF8210C0EFB18071A
:1013200041EA07470CFB08F3BB4207D97F1908F1D4
:10133000FF3102D2BB4200F2BD808846FF1AA4B240
:10134000B7FBFEF30EFB137744EA07470CFB03FCE5
:10135000BC4507D97F1903F1FF3102D2BC4500F229
:10136000A7800B4643EA0843ADE752426FEA060600
:1013700063EB43035DE7404261EB41014FF0FF3611
:1013800054E7C0F1200224FA02F107FA00F3854085
:101390004FEA154ED7401943B7FBFEF20B0C0EFB7C
:1013A00012771FFA85FC43EA07430CFB02F79F42C2
:1013B00004FA00F407D95B1902F1FF3074D29F429E
:1013C00072D9023A2B44DF1B89B2B7FBFEF80EFB41
:1013D000187341EA03430CFB08F79F4208D95B19D5
:1013E00008F1FF315CD29F425AD9A8F102082B4480
:1013F000D81B48EA02428EE7C2F120032CFA03F11F
:101400000EFA02FE20FA03F741EA0E0E08FA02F085
:1014100028FA03F14FEA1E453843B1FBF5F8030CF7
:1014200005FB18111FFA8EF743EA014107FB08F389
:101430008B420CFA02FC09D911EB0E0108F1FF39BD
:1014400030D28B422ED9A8F102087144C91A80B259
:10145000B1FBF5F305FB131140EA014107FB03F76C
:101460008F4208D911EB0E0103F1FF3016D28F42E3
:1014700014D9023B714443EA0843C91BA3FB0C89FE
:10148000494509D305D000221DE79646FEE61346DE
:1014900011E794404445F6D2013BF4E70346EAE7FE
:1014A0008846A5E7C846D1E702468CE713460AE717
:1014B000023B57E7A8F102082F443FE72DE9F0412E
:1014C000002B44D18A42154604464FD9B2FA82F71E
:1014D0000E464FB1C7F12003B94020FA03F602FAD5
:1014E00007F50E4300FA07F44FEA154E230CB6FB3E
:1014F000FEF0AFB20EFB106143EA014307FB00F1BF
:10150000994209D95B1900F1FF3280F0EC809942D1
:1015100040F2E98002382B445A1AA4B2B2FBFEF31F
:101520000EFB132244EA024207FB03F7974208D955
:10153000521903F1FF3180F0D880974240F2D580F4
:10154000023B43EA004000263146BDE8F0818B4271
:1015500047D8B3FA83F6002E48D18B4202D3824299
:1015600000F2CD8001203146BDE8F08112B901259D
:10157000B5FBF2F5B5FA85F8B8F1000F77D14A1B43
:101580004FEA154EAFB20126B2FBFEF0230C0EFB64
:10159000102143EA014107FB00F38B4207D94919A7
:1015A00000F1FF3202D28B4200F2BA801046C91A13
:1015B000A4B2B1FBFEF30EFB131144EA014407FB96
:1015C00003F7A74208D9641903F1FF3280F08F8036
:1015D000A74240F28C80023B43EA00403146BDE81E
:1015E000F081002630463146BDE8F081C6F1200486
:1015F00022FA04F5B3402B4320FA04FC01FA06F763
:1016000021FA04F54FEA134E4CEA0707B5FBFEF842
:10161000390C0EFB18551FFA83FC41EA05450CFBFB
:1016200008F1A94202FA06F204D9ED1808F1FF34D4
:1016300067D3A0466D1ABFB2B5FBFEF40EFB14557E
:1016400047EA05410CFB04FC8C4504D9C91804F198
:10165000FF355CD32C4644EA0844CCEB0101A4FBE3
:101660000223994248D344D0204600266CE7C8F1B3
:10167000200401FA08F305FA08F520FA04F7E1401E
:101680004FEA154E1F43B1FBFEF63A0C0EFB161146
:101690001FFA85FC42EA01430CFB06F29A4200FA6B
:1016A00008F407D95B1906F1FF3137D29A4235D9D0
:1016B000023E2B449B1ABFB2B3FBFEF00EFB10336D
:1016C00047EA03430CFB00F1994207D95B1900F18B
:1016D000FF3221D299421FD902382B445A1A40EACC
:1016E0000646674650E7104616E70B4629E71346BD
:1016F00072E7B0409042B7D2601E002624E7304621
:1017000022E7A94295D9A8F102081D4492E78C4529
:10171000A0D9023C19449EE71046DFE70E46C9E710
:101720000238294443E700BF7047000038B50F482E
:1017300002F0C4FD0E4800F045F905460C4800F0E3
:101740004DF904462846FFF7BBF902460B46094807
:1017500002F0B4FD2046FFF7B3F902460B460648F7
:1017600002F0ACFD054801F015F9E3E7A0A1000087
:10177000DC080020A8A10000C2A100000000A040D9
:1017800010B5074C44F21901204644F2180200F04B
:1017900069F820460349044ABDE8104001F020BF23
:1017A000DC080020291700000000002010B50446C6
:1017B00000F0CDFF204643F2A20100F095FF204645
:1017C00000F0D5FF0A20BDE8104001F0F1B830B5B7
:1017D0000D4685B0044600F0BAFF2B128DF80C3090
:1017E0000023009321698DF80D5003AA022320469F
:1017F00000F05AFF204600F0BAFF05B030BD0000EF
:101800007FB504464FF22D31FFF7E1FF0026204659
:1018100000F09DFF0096216903AA0123204600F0F5
:1018200076FF204600F0A3FF20469DF80C5000F004
:101830008EFF0096216903AA0123204600F067FF6E
:10184000204600F094FF9DF80C3005482D0245EA33
:101850000304214602F032FD204604B070BD00BFF3
:10186000DEA1000010B5044600F0F2FE442323611F
:10187000054802F023FD2046FFF798FF2046FFF7BA
:10188000BFFF204610BD00BFE2A100000A44FF20B8
:1018900091420ED011F8013B5840082310F0800F00
:1018A0004FEA400018BF80F03100013BC0B2F5D1D3
:1018B000EEE77047000000002DE9F0434FF41051AF
:1018C00085B00446FFF783FF4FF4FA7001F070F81B
:1018D00002AF2046002500F03AFF0095204621691E
:1018E0003A46062300F013FF204600F040FF795DE2
:1018F0002F48013502F0E2FC062DF8D1204639468A
:101900000222FFF7C3FF9DF80A509DF808809DF85A
:10191000096085423ED120460DF10B010222FFF7FE
:10192000B5FF9DF80D909DF80B709DF80C5081450A
:1019300030D146EA082631461E4802F0BFFC304648
:10194000FFF79CF816A3D3E90023FFF70DF916A3C0
:10195000D3E90023FFF732FA0022174BFEF750FFBE
:10196000FFF7C4FB45EA0725A0612946134802F0AA
:10197000A5FC2846FFF782F80022114BFFF7F4F888
:1019800009A3D3E90023FFF719FAFFF7AFFB606162
:10199000012000E0002005B0BDE8F083AFF3008037
:1019A0000000000000E0654000000000E0FFEF40A4
:1019B000E5A10000EDA1000000804640F7A1000075
:1019C0000000594010B50446FFF776FF08B1A06942
:1019D00010BD014810BD00BF0000C07F10B5044617
:1019E000FFF76AFF08B1606910BD014810BD00BF74
:1019F0000000C07F07B500F02FFF01A841F21601DB
:101A000000F020FF01A8012100F08EFD962000F0DB
:101A1000CFFF01A8002100F087FD962000F0C8FF4D
:101A2000F0E7000030B50546A1B00C4600F014FF09
:101A300029466846224606F075FA051E03DC00F0CA
:101A400035FF21B030BD0A4B1B6833B9094841F25C
:101A5000110141F2100200F06BFC00241DF804108B
:101A60000448013400F01AFDAC42F7D1E7E700BFAB
:101A7000F8090020081400200FB407B504A951F894
:101A8000040B0191FFF7CEFF03B05DF804EB04B047
:101A9000704700F04BB900F01DB907B5042101A84B
:101AA00000F0B6FE03B05DF804FB0000054B1B68B8
:101AB00033B9054841F2110141F2100200F038BC7F
:101AC000704700BFF80900200814002002284FF0DA
:101AD000000309DDC21E074951F8220041F82230F7
:101AE00020B103685B681847184670474FF0FF3015
:101AF000704700BFF8080020022870B50C46154654
:101B00000FDC0E4B1B680BB9FFF7D0FF6619B44210
:101B100005D00B4814F8011B00F0C0FCF7E728467D
:101B200070BD0338074B53F8200020B10368BDE8AF
:101B300070401B6818474FF0FF3070BDF809002057
:101B400008140020F8080020022810B50C460ADC12
:101B50000B4B1B680BB9FFF7A9FF0A4800F078FC94
:101B60002070012010BD0338074B53F8200020B12E
:101B70000368BDE810409B6818474FF0FF3010BD68
:101B8000F809002008140020F8080020022807DDCA
:101B90000338064B53F8200020B10368DB68184770
:101BA000012070474FF0FF30704700BFF808002059
:101BB000022807DD0338064B53F8200020B10368E4
:101BC0001B691847002070474FF0FF30704700BF77
:101BD000F8080020022808B504D84FF400534B60E1
:101BE000002008BD01F034FD092303604FF0FF30F1
:101BF00008BD02F039B802F075BB01F0FBBE7047BA
:101C000008B5FFF7FCFF08BD704708B5FFF743FFB5
:101C1000FFF7FAFFBDE80840FFF788BD074A1368E1
:101C20001844EFF30881884229BF054B10600C224D
:101C30004FF0FF302CBF1A60184670470400002098
:101C40000C140020074C08B523680546986801F07D
:101C5000D5FD2368D86801F0D1FD0DB1FFF7CAFEAC
:101C6000FEE700BF400400207047704708B5FFF74B
:101C7000FBFF08BD08B5FFF7F8FF08BD034610B528
:101C800053F8042B044602B9036022689A4204D038
:101C900003480449542200F08BFD206810BD00BFAA
:101CA0000CA2000020A20000084AD2F8883043F4B9
:101CB0007003C2F88830064B4CF22052DA814DF6A0
:101CC0002812DA814FF4E9721A80704700ED00E0C3
:101CD0000020054010B50F4B0F4C4FF092721A6068
:101CE00004F1140000F096FA0C4B0D4A1A60002023
:101CF000014604F1080200F0F5FA00210A4602202C
:101D000000F012FA04F10C0000F0F4F8054B064A5A
:101D10001A6010BD4480044060A20000041400203A
:101D200080F0FA0208000020000E2707F0B5EFF35C
:101D3000108672B60C4B0D4A9B68934215460DD027
:101D40000B4C0023A408A34206D00A4F57F8237077
:101D500045F823700133F6E7034B9A60103045F8DD
:101D6000201006B962B6F0BD00ED00E00000FF1FD4
:101D70000004000000000000074B9B79DB0749BF0F
:101D8000064B074B074A1B7851BF18681068C3F30E
:101D90004203D840704700BF00400640084006405C
:101DA0000C0000201000002008B50F4B1B7803F03A
:101DB0000303012B0DD004D3022B0C4818BF0020C5
:101DC00008BD0B4B186868B90A480B4A0B4BD62163
:101DD00006E00B4B186828B90648074A094BDB2177
:101DE00001F00EFC08BD00BF0C400640006CDC0298
:101DF00004140020A1A2000075A3000014A3000099
:101E00000014002020A3000010B5134CA379DB06BA
:101E10001FD4FFF7C9FFF0B1104A237811780B32B5
:101E2000C3F3C203127811F0300F20FA03F002F06E
:101E3000030200D00AB1022A0DD1062B03D0072BD2
:101E400003D0400910BD142300E00C23B0FBF3F0D5
:101E500010BD034B186810BD00400640014006400D
:101E60000C00002008B5084B1B781B0609D5074B52
:101E7000186838B90648074A074B40F2671101F065
:101E8000BFFB002008BD00BF005006400414002026
:101E9000A1A2000048A3000014A3000008B5104B45
:101EA0001B68C3F38143022B0BD0032B15D093B9CE
:101EB000FFF7D8FFB0F5004F0CBF4FF400400020F3
:101EC00008BD084B186850B90748084A084B40F24B
:101ED0007B1101F095FB002008BD4FF47A7008BD1E
:101EE0000070044000140020A1A200005FA30000C5
:101EF00020A300000B4B42681A600B4902780B6864
:101F0000120402F4403223F4403313430B600749B8
:101F100042780B68920402F4402223F440231343D6
:101F20000B6070474480044004800440007004400B
:101F300010B50D4B1B789A0701D5002010BD0B4C36
:101F4000A3799B06F9D4FFF75FFF0028F5D0E3786B
:101F5000E278C3F341135B0003EBD213044A32F877
:101F60001330584310BD00BF0140064000400640FA
:101F700080A20000044B1B7803F0020303F0FF0073
:101F80000BB1FFF7F9BE70470040064008B50B4B98
:101F90009B7903F0400303F0FF0073B1FFF704FFE8
:101FA000074B1B7803F01F030133B0FBF3F0054B25
:101FB0001B7803F01F031833584308BD0040064048
:101FC0000440064005400640074B1B68C3F301432D
:101FD000012B02D003D2FFF7ABBFFFF7D7BF032B14
:101FE000024818BF0020704704800440006CDC02E7
:101FF000084B9B79C3F38103022B09D0032B03D039
:10200000012B03D0FFF794BFFFF7C0BFFFF7B4BEAB
:10201000FFF7CABE0040064010B5FFF7F5FE0446C4
:1020200038B1FFF7E5FFB4EBD00F94BF2046002096
:1020300010BD10BD08B5132848D8DFE800F00D0D1D
:10204000131D24472B2F334747373B3F4347474711
:10205000490A4FF47A7008BDFFF7CAFF1D4B1B6891
:102060001B0F05E0FFF7C4FF1A4B1B68C3F30363A4
:102070000133B0FBF3F008BDFFF7BAFF154B1B6847
:10208000C3F30353F4E7FFF7B3FF124B1B68C3F32B
:102090000343EDE7BDE80840FFF796BFBDE8084001
:1020A000FFF7FCBEBDE80840FFF7DCBEBDE8084016
:1020B000FFF7B2BFBDE80840FFF75CBFBDE80840CE
:1020C000FFF736BFBDE80840FFF760BF002008BD3E
:1020D000014808BD44800440006CDC0210B50F4983
:1020E0000A780B7800F0030403F0FC03234302F0AA
:1020F00003020B7038B90A4B1B78590703D5094BFB
:102100009B799B07FBD5824205D040F2DD53013B12
:1021100001D000BFFBE7002010BD00BF0C4006400F
:102120000140064000400640F0B5204B204E9D790E
:102130009F793478C4F34204A242C5F38105FFB20B
:102140001C4C18D0FF0708D43378520002F00E025E
:1021500003F0D0031A4332700DE0012D02D01B783A
:102160009B07F1D5237803F0FE0323700F4B9B7977
:10217000DF07FBD4E8E7227801F0010302F0FE025A
:1021800013432370094B1C7800F0030204F0FC0495
:102190002243012D1A7001D0820704D59A7902F0EA
:1021A00001028A42FAD10020F0BD00BF0040064083
:1021B000084006400140064010B530B90F48104AAB
:1021C000104B4FF4517101F01BFA43780E4A0F4C3B
:1021D00003F01F0313702378817803F0E00301F00C
:1021E0001F010B432370117803780B4343F0400326
:1021F0001370074B9B795B06FBD510BDA1A20000B5
:1022000090A200002DA300000440064005400640B7
:1022100000400640036849F69702934230B505D95D
:1022200014498B4294BF0121022100E00021124B8E
:10223000124D1A7802F0F004027922431A701A78CB
:1022400002F05F04827922431A7044792A7844EAC2
:10225000011101F03C0102F0C3020A432A704279E5
:1022600032B11B781A0603D5054B9B799B07FBD52A
:1022700030BD00BF00127A00005006400140064009
:102280000040064010B5144A137803F0FD031370A4
:10229000124B1A7802F03B0242F080021A709A79CF
:1022A00002F01C02082AFAD10D4B1A7802F0BF0284
:1022B0001A701C46094B9B799A06FBD40846FFF717
:1022C0007BFF237843F040032370044B9B799B06EC
:1022D000FBD5002010BD00BF014006400040064075
:1022E0000540064038B50D46144632B90C480D4A33
:1022F0000D4B40F2556101F083F9FFF7EFFE2846E0
:102300002146FFF7BFFF094A137803F03F0313701C
:10231000064B9B79C3F38103032BF9D1002038BD11
:10232000A1A2000034A300002DA30000004006403D
:102330002DE9FF4104460F4608463149164600F094
:102340000DFB30490546304600F008FB01462846A3
:1023500000F0E6FA2060013004D12B482B493022EE
:1023600000F026FA2A4B1B68B3F1A07F01D1FFF7DA
:10237000B1FC01A800F0FAFB4FF4165301930023BF
:10238000244A8DF80C308DF80D302368224DD05C36
:1023900055F82380FFF74EFE01A90246404600F0A3
:1023A00027FB3846164900F09FFA3046154900F0E1
:1023B0009BFA7A1C0AD0236855F82320D37843F07F
:1023C0000803D3703846022100F00AF9731C0AD0C2
:1023D000236855F82320D37843F00403D3703046A4
:1023E000022100F0FDF823683BB90C4B0C48012298
:1023F0001A6021460422FEF765F904B0BDE8F081B9
:10240000B0A70000B4A60000ACA30000C2A3000067
:10241000080000208CA3000094A30000F80900200D
:102420000814002070B50368084D064655F82300CF
:1024300000F0B8FB0307044605D53368082155F8BA
:10244000230000F0BAFB04F0200070BD94A300004C
:1024500010B504462046FFF7E5FF0028FAD02268B1
:10246000024B53F82230D87910BD00BF94A300006E
:1024700070B50368084D064655F8230000F092FB3E
:102480000307044605D53368082155F8230000F0FA
:1024900094FB04F0800070BD94A3000038B505469D
:1024A0000C462846FFF7E4FF0028FAD02A68034BC1
:1024B00053F82230E4B2DC7138BD00BF94A30000B1
:1024C0004B1C016003D00846012100F04FB8704753
:1024D000006800F085B8000038B503680133054690
:1024E0000C4604D10D480E492D2200F061F92B68ED
:1024F0000C4AD8B21B1352F8233014B1012C07D068
:1025000038BD59690122824021EA02025A6138BD70
:102510005A69844014435C6138BD00BF92A4000036
:1025200030A40000ACA4000038B5036801330446B1
:102530000D4604D10A480B493D2200F039F92368C1
:10254000094AD9B21B1315F0FF0F52F823204FF0A0
:10255000010303FA01F30CBF9360536038BD00BF61
:1025600092A4000030A40000ACA40000F0B5431C0D
:1025700087B007460C4604D115481649192200F0C9
:1025800017F9154E0FCE01AD0FC533682B60381308
:1025900006AB03EB8003012253F8141C0B0C03F170
:1025A000804303F58E2389B21D688A402A431A604E
:1025B0000A4BFFB253F8202052F82730240223F4AC
:1025C000E06304F4E0641C4342F8274007B0F0BD28
:1025D00097A40000D4A4000078A10000C0A40000CB
:1025E00038B5431C04460D4604D112481249222234
:1025F00000F0DEF82213114BE4B253F82220012D33
:1026000052F824300CD006D3022D0FD123F0807362
:1026100043F003030AE023F0807323F0030305E093
:1026200023F0807323F0010343F0020342F82430C7
:1026300038BD00BF97A40000D4A40000C0A40000CF
:10264000704710B5044600F0D1FF204610BD0000D1
:10265000074B10B50360002343600372054BC36052
:102660000446043000F0BEFB034B20461C6010BD46
:1026700040A50000A0860100FC090020036870B599
:10268000084D1B68044698472B68A34204D0201DC0
:10269000E16800F031FC2C60236820465B68BDE8EF
:1026A00070401847FC090020F7B51D460368044632
:1026B0001B680F46164698472046FFF7DFFF9DF838
:1026C000203083F001033246009339462B46201D0B
:1026D00000F062FC236806465B6820469847A81B0A
:1026E00018BF012003B0F0BD70B505460E4655F881
:1026F000043B1B68044698473146284600F084FC9A
:10270000236805465B6820469847284670BDF7B5A4
:102710001D46036804461B680F4616469847204628
:10272000FFF7ACFF9DF8203083F0010332460093A1
:1027300039462B46201D00F0F5FB236806465B68F2
:1027400020469847A81B18BF012003B0F0BD70B504
:102750000546044655F8043B1B689847284600F098
:10276000A7FB236820465B68BDE87040184770B53A
:102770000546044655F8043B1B689847284600F078
:10278000ABFB236820465B68BDE87040184700003B
:1027900008B50248FFF772FA08BD00BF000A002022
:1027A00008B50248FFF76AFA08BD00BF000A00201A
:1027B00070B506460D46144600F04EF831462A46DE
:1027C00023460348FFF758F9BDE87040FFF712B9F8
:1027D00050A500000FB407B504A951F8040B0191EE
:1027E000FFF720F9012000F039FF70B50E460446CE
:1027F0001546FFF765FE013609D020460021FFF798
:102800006BFE20462946BDE87040FFF761BE70BDF3
:102810000222FFF7EABF70B50E4604461546FFF7E1
:102820004FFE01360DD020462946FFF77DFE20469B
:102830000121FFF751FE20460021BDE87040FFF75F
:1028400047BE70BD0022FFF7E6BFEFF3108000F037
:10285000010080F00100704738B5FFF7F6FF80F007
:102860000100C5B272B60C4C23680BB90B4B1D703E
:102870002368013304D10A480A493222FFF798FF3E
:1028800023682BB125B9084806493622FFF790FF87
:1028900023680133236038BD080A00200C0A002099
:1028A00081A50000A7A50000DDA5000010B50A4C19
:1028B000236883B1FFF7C9FF20B1084808494722C0
:1028C000FFF776FF2368013B236023681BB9054BA4
:1028D0001B7803B962B610BD080A0020DDA5000010
:1028E000A7A500000C0A002010B50446013001D154
:1028F00010BD0C310B685A1C0BD0A342F9D12046F5
:102900008968FFF733FE20460021BDE81040FFF73D
:1029100067BE0248BDE81040FFF75CBFF1A50000AC
:10292000884208B50AD0431C07D0013106D00448BC
:10293000FFF750FF4FF0FF3008BD084608BD00BF4D
:1029400002A600000B685A1C05D0834201D14868DA
:1029500070470C31F6E7184670470000421C10B56E
:10296000044607D0FFF7EEFF431C044602D102489D
:10297000FFF730FF204610BD13A6000038B504460F
:1029800000F0DAF9054600F0D7F9401BA042FAD36F
:1029900038BD000007EE100ADFED047A67EE277AF3
:1029A000FDEEE77A17EE900AFFF7E8BF00247449BE
:1029B0004FF47A735843FFF7E1BF000008B50023D6
:1029C000074A52F82320824208D00133062BF7D160
:1029D0000448054A054BA52100F012FE184608BD23
:1029E00058A8000070A800007DA90000E2A800001F
:1029F00070B5044616460D4621B95548554A564B02
:102A0000CC2124E0554B984217D003F580539842CF
:102A100013D003F58053984211D003F580539842A8
:102A20000DD003F5FA23984209D003F5805398425C
:102A30000CBF01234FF0FF3302E0082300E0012325
:102A4000AA79934205DA4248424A454BCE2100F02A
:102A5000D7FD424B9C4217D003F580539C4213D0C4
:102A600003F580539C4211D003F580539C420DD056
:102A700003F5FA239C4209D003F580539C420CBF16
:102A800001234FF0FF3302E0082300E00123EA793D
:102A9000934204DA2E482F4A324BCF21D7E7204603
:102AA000FFF78CFF304B53F820100B0C03F18043E1
:102AB00003F58E2389B2186801228A4002431A6006
:102AC000E37803F0F303E37022782B6802F0E0026E
:102AD0001B01B6FBF3F399B242EA1122DBB222707A
:102AE0006370A37A2A6803F0E00312017601B6FB53
:102AF000F2F606F01F061E43A672A3782A7903F0A9
:102B0000EC0312B142F010021343A3706A792378E8
:102B1000520102F0200203F0DF0313432370AB796C
:102B2000E374EB796375237C43F088032374637C3F
:102B300043F0C0036374E3782A7ADBB20AB143F04E
:102B400008036A7A0AB143F00403E37070BD00BF62
:102B500070A800008EA900002DA3000000A0064070
:102B6000FCA8000039A9000098A9000008B530B9F8
:102B700009480A4A0A4B40F22D1100F041FD4FF47A
:102B8000E1330360012200238371C2710371437139
:102B90000372437208BD00BF70A8000040A8000087
:102BA0002DA3000001794379027B807C120442EA64
:102BB00003230B4343EA0060704710B5437903F0E9
:102BC0003F0343EA1123DBB243710B0E8374CB0640
:102BD0001CBF0379C3790C46FFF7E4FF204240F2A3
:102BE000EE3008BF002010BD024B034A1B680348AB
:102BF00011681847100A0020140A002000A006409F
:102C0000FFF7F2BF024B034A1B680348516818479D
:102C1000100A0020140A002000B00640FFF7F2BF9F
:102C2000024B034A1B68034891681847100A0020AA
:102C3000140A002000C00640FFF7F2BF024B034A0F
:102C40001B680348D1681847100A0020140A0020A6
:102C500000D00640FFF7F2BF024B034A1B6803484F
:102C600011691847100A0020140A002000A00E4025
:102C7000FFF7F2BF024B034A1B680348516918472C
:102C8000100A0020140A002000B00E40FFF7F2BF27
:102C9000234B1A6813B5002A3FD101221A60214B39
:102CA0001B68B3F1A07F01D1FFF714F81E4C02A9F5
:102CB000002301F8043D204600F0F8F90220FFF758
:102CC000B9F91A4BB0FBF3F04FF0FF330138C4F8F9
:102CD0000001C4F81031D4F81831154943F0040349
:102CE000C4F81831D4F8083143F00103C4F80831AE
:102CF000D4F8183143F00103C4F81831C4F82001A6
:102D0000D4F8383143F00403C4F838313320FEF7E7
:102D1000C0FE084B4FF400225A6002B010BD00BF45
:102D20002C0A0020080000200070034040420F00E1
:102D30003130000000E100E008B5054B1B680BB91D
:102D4000FFF7A6FF034BD3F81401C04308BD00BF33
:102D50002C0A002000700340034AD2F8383123F0D7
:102D60000203C2F83831704700700340024B012261
:102D7000C3F83C21704700BF0070034010B5044603
:102D8000FFF7DAFF201A002805DC144B4FF400226D
:102D9000C3F8042110BD124BD3F8382122F00102F0
:102DA000C3F83821D3F8282122F00102C3F82821E2
:102DB000C3F83001D3F8382142F00202C3F83821B9
:102DC000D3F8382142F00102C3F83821D3F8282182
:102DD00042F00102C3F8282110BD00BF00E100E06D
:102DE000007003402DE9F041054688B008460C46C6
:102DF00028491746FFF7B2FD274906463846FFF730
:102E0000ADFD01463046FFF78BFD00232860013001
:102E10002B7104D1214822492822FFF7C9FC6846BA
:102E200000F0B4F92B681F4A1F4ED05C56F823807F
:102E3000FFF700F969460246404600F0F9F92B68B1
:102E4000402156F82300194E00F0BAF920461149E6
:102E5000FFF74AFD38461049FFF746FD0FCE03AD98
:102E60000FC533682B6008AA231302EB8303E4B277
:102E700053F8143C53F82420FFB242F0200243F8E8
:102E8000242053F8272042F0200243F8272008B0DE
:102E9000BDE8F08154A6000044A70000BFA90000CF
:102EA000D8A90000BCA90000B0A900008CA10000B6
:102EB000084B026810B553F82240204600F022FA71
:102EC00010F0200003BFA37843F03003A37001206B
:102ED00010BD00BFB0A900000268064B10B5044643
:102EE00053F8220000F0F8F910B1002323710120FB
:102EF00010BD00BFB0A9000038B5084A03680446F9
:102F0000D05C0D46FFF796F82168054B024653F852
:102F100021002946BDE8384000F060B9BCA9000096
:102F2000B0A900002DE9F04190461D460268184BFB
:102F300086B053F82260174B4F10044600216846B4
:102F400018221F6001F06CF901238DF805302379F8
:102F5000CDF810808DF8047005951BB1009B43F0EF
:102F6000020300930C9B1BB9009B43F004030093E6
:102F7000009BC3F3800323713046694600F078FA62
:102F800000280CBF28464FF0FF3006B0BDE8F081A6
:102F9000B0A90000300A00202DE9F04190461D46FE
:102FA0000268184B86B053F8226004460F46684604
:102FB0000021182201F034F900238DF8053023791F
:102FC000CDF810807F108DF8047005951BB1009B23
:102FD00043F0020300930C9B1BB9009B43F00403D6
:102FE0000093009BC3F3800323713046694600F0D1
:102FF0003FFA00280CBF28464FF0FF3006B0BDE86E
:10300000F08100BFB0A9000007B502AB074A43F842
:10301000041D016852F821001946012200F0C1F98F
:10302000B0FA80F0400903B05DF804FBB0A90000DD
:10303000014800F003B800BF50AA0000036870B553
:10304000DB680446984763685A6823681AB99B6826
:10305000BDE8704018475B6815689847281A002833
:10306000636808DC5A68916859601B68002BEAD0D5
:1030700050689847E7E721685A680B691068BDE80F
:103080007040184708B5054B984205D00448054ADA
:10309000054B462100F0B4FA002008BD0070034043
:1030A00058AA0000EEAA0000C9AA000038B50446DC
:1030B0000D4629B90D480E4A0E4B4D2100F0A0FADD
:1030C000FFF7E0FF0C4A136843F400031360236822
:1030D00023F0020323602B781BB1236823F0010344
:1030E00002E0236843F00103236038BD58AA0000C2
:1030F000FEAA00002DA300003C800440CB0604D5AE
:103100001023C37040F24F40704711F0010F40F29E
:103110004E4008BF0020704710B5C278D206034663
:103120000C4602D48278920606D5064A21461268D9
:103130001846BDE810401047034BBDE810401B681F
:10314000184700BF480A00204C0A002008B50B4B66
:1031500098420DD003F5805398420BD003F5FE231F
:10316000984209D00648074A074BA62100F048FAC2
:10317000002008BD012008BD022008BD00600640F7
:10318000A7AB000007AB000018AC000008B530B9D1
:103190000748084A084B40F2D91100F031FA074BB2
:1031A000436000234370837003720123037008BDE2
:1031B000A7AB0000D2AC00003DAC0000A08601002F
:1031C0004A0642BF837843F0400383708B0642BFB8
:1031D000837943F02003837170470000F0B5002528
:1031E0002C464FF0FF3EAC460127AF4000260F4B68
:1031F00033F816307B43B2FBF3F399428CBFCB1A02
:103200005B1A734503D2AC4634462BB19E46013659
:10321000402EECD1022D06D104F03F0444EA8C1478
:10322000E4B24470F0BD0135DEE700BF18AB00002A
:1032300070B5044616460D4601B132B92248234AFC
:10324000234B4FF4CF7100F0DBF9FFF77FFF214BE9
:1032500053F82000030C03F1804303F58E2380B262
:103260001A680121814011431960A37803F07F039C
:10327000A370A37943F05003A371A37943F05003E3
:10328000A3711223E370324620466968FFF7A6FF58
:10329000637903F0DF026B785B0103F020031343D3
:1032A0006371A379AA7803F07F0343EAC2132A7AF1
:1032B00003F0F00302F00F021343A3712B78DB013C
:1032C000DBB2A37070BD00BFA7AB000098AB0000DD
:1032D0004AAC0000F0AC0000837803F0C7038370B1
:1032E0004FF6FF73C278920606D5013B9BB2002BC6
:1032F000F8D14FF48A607047002B14BF00204FF4C0
:103300008A607047C378827951068279DBB248BF00
:1033100043F48043D20648BF43F4805318467047B5
:1033200070B505460C461646FFF7ECFF10F020007E
:103330000CD1AB786400012E14BF224644F0010288
:1033400043F03003D2B2AB702A7170BD40F24C40F2
:1033500070BD70B5164604460D46FFF7D3FF8206D2
:1033600002D5A3789B0619D56378DBB203F03F0240
:103370006270A07840F00400A070637000BF00BFCE
:1033800000BF00BF00BF00BF6D00012E14BF2A4662
:1033900045F00102D2B22271002070BD40F24C40D3
:1033A00070BD30B50346D8780006FCD50220D87031
:1033B000987840F0100098700A4491421CD011F89F
:1033C000010B1871D8788507FCD5DC78E4B20220AF
:1033D00004F01005D87005F0FF001DB11020D87062
:1033E00040F24F40E40704D50122DA7040F24E402B
:1033F00030BD0028E1D000E0002030BD73B50023CF
:103400008DF807309DF807300133DBB204460E46D5
:103410008DF80730E3781906FCD50223E370A37812
:1034200003F0E703A370012A02BFA37843F0080367
:10343000A3702379DBB28DF80730551E00206B1C7A
:1034400014D0E3789A07FCD50223E3701DB9204617
:10345000FFF742FF05E0012D02BFA37843F0080308
:10346000A370237906F8013B013DE8E702B070BD87
:1034700070B505460E4631B94748484A484B4FF4A7
:103480004A7100F0BDF883794A7943F050038371A3
:10349000837943F0500383711223C370EB781C06C9
:1034A000FCD5337B1BB17379012B08BF0022336835
:1034B000317913F0020F284602D0FFF74AFF01E0EE
:1034C000FFF72EFF002865D1337B5BB3EB789807BD
:1034D000FCD50223EB70E9782846FFF70FFE04467F
:1034E00048BB337BB268013BDBB23373DB00DA40AD
:1034F000D2B22A71337B002BE8D17379012B11D121
:10350000EB789907FCD50223EB70E9782846FFF7A2
:10351000F5FD044678B9284631790122FFF719FFF5
:10352000002837D1EB789A07FCD5E9782846FFF7D1
:10353000E5FD044638B140F24E439C4229D128466D
:10354000FFF7CAFE25E073790BB1002015E073691F
:10355000002BFAD0316972692846FFF722FF18B9AB
:1035600033685B0704D5F0E740F24E43984204D13C
:103570000223EB702846FFF7AFFE7379012B09D1C8
:1035800073693BB1316972692846BDE87040FFF745
:1035900035BF204670BD00BFA7AB0000B7AC000030
:1035A00070AC0000024B03481968FFF7B5BD00BFBF
:1035B0003C0A002000600640024B03485968FFF7B0
:1035C000ABBD00BF3C0A002000700640024B034820
:1035D0009968FFF7A1BD00BF3C0A002000600E40C3
:1035E00003460846194600F029B800BF00F034BB76
:1035F00008B5062001F0AAF80120FEF723FB00BF62
:1036000000B50A4C2468054685B0E06852B1084C04
:1036100002928DE812001A4606492B4600F088F9FE
:10362000FFF7E6FF044C2246F2E700BF400400200B
:10363000FCAC00000CAD000008AD000010B40C465E
:1036400013460146224602205DF8044B04F0ECBC10
:10365000014B1868704700BF4004002008B50021E6
:10366000044604F03DFD044B1868C36B03B1984752
:103670002046FEF7E7FA00BF40AD00008B899AB202
:103680002DE9F0410D46110780463CD46A6843F4A9
:103690000063002AAB8165DDAE6A002E4BD09BB281
:1036A00003F48052002192B2D8F80040C8F800100C
:1036B000002A5BD02A6D5F0705D569682B6B521A0B
:1036C0000BB1EB6BD21A4046E9690023B047461CA8
:1036D00056D0AB892A692A6023F400639BB200228A
:1036E0006A60DA04AB813BD4296BC8F8004011B39F
:1036F00005F14003994202D04046FEF77EFA0020D1
:103700002863BDE8F0812E69AEB12C682E60910768
:103710000CBF6B690023A41BAB600AE03246234652
:103720006F6AE9694046B8470028A4EB00040644E4
:1037300004DD002CF2DC0020BDE8F081AB8943F011
:103740004003AB814FF0FF30BDE8F081AB892A69BF
:10375000696023F400639BB2AB81DB042A60C3D5AC
:103760002865C1E7EA6B002A96DCE4E701234046BE
:10377000E969B047431C024619D0AB89AE6A9AE7A3
:10378000D8F800100029E1D01D2907D0162905D04E
:10379000AB8943F04003AB81BDE8F081AB892A6976
:1037A0002A6023F400630022AB816A609CE7D8F8AA
:1037B0000030002BE1D01D2B07D0162B05D0AB8994
:1037C00043F04003AB81BDE8F081C8F80040B2E7A8
:1037D00010B5044682B008B1836B53B1B1F90C0047
:1037E00008B902B010BD204602B0BDE81040FFF796
:1037F00045BF019100F092F80199EFE720B1054B28
:1038000001461868FFF7E4BF034B0449186800F04D
:10381000C9B900BF4004002040AD0000D13700000E
:10382000014900F0BFB900BFA19100002DE9F04FA0
:10383000354B4568C3630024074600F53B720423FB
:103840000321C0F8E412C0F8E822C0F8E04283B0D7
:103850002C606C60AC606C66EC812C616C61AC615E
:10386000AB81214605F15C00082200F0D9FCBE685E
:10387000DFF898B0DFF898A0DFF89890DFF898802C
:10388000C5F820B001230922C5F824A0C5F8289066
:10389000C5F82C80ED612146F381B28106F15C0010
:1038A00034607460B460746634617461B461082219
:1038B000019300F0B5FCFD68F66112200222C6F803
:1038C00020B0C6F824A0C6F82890C6F82C8021465F
:1038D000A881EA812C606C60AC606C662C616C61C4
:1038E000AC6105F15C00082200F09AFC019BED61DF
:1038F000C5F820B0C5F824A0C5F82890C5F82C80DC
:10390000BB6303B0BDE8F08F213800008947000099
:10391000AD470000E547000005480000836B03B198
:103920007047FFF783BF00BF704700BF704700BFFD
:103930000EB410B583B005AB064C53F8042B0193BD
:103940000146206802F040FA03B0BDE8104003B021
:10395000704700BF40040020F8B5234F0C460646D0
:10396000FEF784F9BB685D6825F00305291B01F6A5
:10397000EF7121F47F6121F00F01A1F58054B4F5BE
:10398000805F07DB3046002100F0A2FEBB682B44BD
:10399000984204D03046FEF76DF90020F8BD30465D
:1039A000614200F095FE01300DD0104BBA681968E5
:1039B0002D1B45F001053046091B55601960FEF7C7
:1039C00059F90120F8BD3046002100F081FEBA68A7
:1039D000831A0F2BDEDD064C0449246843F00103F3
:1039E000001B53600860D5E7440400205C0A0020F7
:1039F0005008002000294ED02DE9F0410C468046A9
:103A0000FEF734F954F8047C624927F00102A4F16E
:103A10000805AB188E6858689E4220F003005AD003
:103A2000FE0758600BD454F8087CED1B01F1080E1A
:103A3000AC6874453A4467D0EF68E760BC601C1816
:103A40006468E4070CD4544F9C68BC4202447CD0A8
:103A5000D868E06042F0010384606B60AA5003E024
:103A600042F001036B60AA50B2F5007F14D2D20875
:103A700001EBC20348689F68AF609210012404FA0A
:103A800002F21043EB6048609D60FD604046BDE877
:103A9000F041FEF7EFB87047530A042B47D893095B
:103AA00003F13804600001EB80003A4983688342E7
:103AB00043D0596821F00301914202D99B68984292
:103AC000F7D1DA68EA60AB6040469560DD60BDE83A
:103AD000F041FEF7CFB8FF07024407D454F8083C82
:103AE000ED1A1A44A868EB68C36098602B4B1B68FA
:103AF00042F001009A4268608D60C7D3284B40466F
:103B00001968FFF729FFC1E719184968C90709D4DF
:103B1000D9689B68024442F00100D9608B606860FC
:103B2000AA50B3E742F001036B60AA50AEE7142B32
:103B300014D803F15B046000B5E74A68A4100120C3
:103B4000A04002434A601A46BCE742F001034D61BF
:103B50000D61EC60AC606B60AA5097E7542B04D801
:103B6000130B03F16E0460009DE7B3F5AA7F04D840
:103B7000D30B03F17704600095E740F25450834281
:103B800004D8930C03F17C0460008CE7FC207E24B5
:103B900089E700BF440400204C0400204C080020AA
:103BA000580A00202DE9F84310F538771FD08846D1
:103BB00006464FF000097D68BC68013D11D4A38919
:103BC000012B05F1FF3508D9B4F90E300133214638
:103BD000304602D0C04749EA00096B1C04F1680472
:103BE000EDD13F68002FE6D14846BDE8F883B946DD
:103BF0004846BDE8F88300BF70B50F4E0F4D761BE9
:103C0000B61018BF002405D0013455F8043B98477E
:103C1000A642F9D10A4E0B4D761B07F075F9B61086
:103C200018BF002406D0013455F8043B9847A6423B
:103C3000F9D170BD70BD00BF28AF000028AF0000F3
:103C400034AF000028AF0000024B01461868FDF7B2
:103C5000D0BF00BF40040020024B01461868FDF7AA
:103C6000CCBF00BF400400202DE9F04F01F10B054F
:103C7000162D83B0064627D935F0070500F1B6802A
:103C8000A94200F2B380FDF7F1FFB5F5FC7F22D227
:103C9000C24FE80807EBC003DC689C4200F0C88113
:103CA0006368E168A56823F00303234430465A683B
:103CB000E96042F001028D605A60FDF7DBFF0834D5
:103CC000204603B0BDE8F08F102900F28F80FDF789
:103CD000CDFF1025DCE7680A00F08F80042800F291
:103CE0005481A80938304100AC4F07EB8101CC6802
:103CF000A14206D10CE0002A80F28280E468A14251
:103D000006D0636823F003035A1B0F2AF3DD013842
:103D10000130A2493C6901F1080E744500F07D8133
:103D2000636823F003035A1B0F2A00F36381002A00
:103D3000C1F814E0C1F810E073DAB3F5007F80F049
:103D40003981DB0801EBC3084FEAA30C4A68D8F8B5
:103D50000890C4F80890012303FA0CF31343C4F845
:103D60000C804B60C8F80840C9F80C408210012450
:103D700094409C4262D8234206D120F003006400A4
:103D8000234200F10400FAD007EBC008C446814684
:103D9000DCF80C309C4507D141E1002980F25181CB
:103DA000DB689C4500F03B815A6822F00302511BFE
:103DB0000F29F2DD1C46D3F80CC054F8088F5A19AD
:103DC00045F0010941F00105C3F804903046C8F8F8
:103DD0000CC0CCF808807A613A61C2F80CE0C2F8F5
:103DE00008E055605150FDF745FF69E700240C23BA
:103DF0002046336003B0BDE8F08F7E213F2073E79B
:103E00002344E1685A68A56842F00102E96030463F
:103E10008D605A60FDF72EFF0834204603B0BDE8E0
:103E2000F08F234430465A6842F001025A60FDF791
:103E300021FF0834204603B0BDE8F08FBC686368FA
:103E400023F00308454504D8C5EB08030F2B00F306
:103E50008C80534BDFF858A11A68DAF80030013330
:103E60002A4404EB080B00F0508102F580520F3217
:103E700022F47F6222F00F0211463046019200F0D8
:103E800027FCB0F1FF3F8146019A00F0478183454E
:103E900000F2EE80434B1968CB451144196000F0E5
:103EA0004281DAF80000DFF808E101301BBFCBEBFC
:103EB000090B5944CEF80090196019F0070100F081
:103EC0000781C1F10800C1F58051814408314A449D
:103ED000C2F30B02C2EB010A51463046019300F0D7
:103EE000F7FB431C019B00F02C81C9EB00025244FC
:103EF00042F001021968C7F808905144BC42C9F861
:103F000004201960DFF89CA016D0B8F10F0F40F222
:103F1000EE806268A8F10C0323F00703E01802F0BA
:103F200001024FF0050E1A430F2B6260C0F804E047
:103F3000C0F808E000F209811B4BBC681A68914286
:103F400088BF1960194B1A689142626888BF19606E
:103F500022F003029542A2EB050301D80F2B04DCEB
:103F60003046FDF787FE0024AAE6621943F00103FC
:103F700045F0010565603046BA605360FDF77AFE92
:103F80000834204603B0BDE8F08F142868D95428BF
:103F900000F29780280B6E304100A5E64404002013
:103FA000580A00205C0A0020540A0020500A002011
:103FB000500800205A0A042A55D9142A00F2A78072
:103FC0005B324FEA420C07EB8C0CDFF8BC81DCF86B
:103FD000081061457FD04A6822F00302934202D262
:103FE00089688C45F7D1CA687B68E260A1609460FB
:103FF000CC60BBE6631942F0010745F0010565603E
:1040000030464B610B61C3F80CE0C3F808E05F6019
:104010009A500834FDF72EFE52E64B68A6E609F1E9
:10402000010919F0030F0CF1080C7FF4B1AE2CE07C
:1040300004F108036469A34208BF02303FF469AE8B
:104040002EE61A441C465168DB6854F8085F41F0BC
:10405000010151603046EB609D60FDF70BFE2FE6DD
:104060005B30410040E69A0938324FEA420CAAE739
:10407000BC42454B3FF40EAF9C68626822F00302DD
:1040800068E7D8F8008098457CD110F0030FA8F1BC
:10409000080300F1FF30F4D17B6823EA04037B605E
:1040A00064009C423FF6CAAE002C3FF4C7AE2342E8
:1040B00048467FF469AE6400234200F10400FAD060
:1040C00062E6B0F5AA7F18D8E80B773041000BE61E
:1040D0004FF48051FBE6D8F8043092104FF0010CF9
:1040E0000CFA02F21343C8F804300A467DE70123B4
:1040F000C9F804304C4600222CE740F25453984251
:104100001CD8A80C7C304100EEE51032B4E6542AED
:1041100023D81A0B6E324FEA420C54E7BC6862682F
:1041200022F0030216E7CBF30B0000287FF4B9AEB0
:104130004244BB6842F001025A60FDE6FC217E2049
:10414000D2E501224FF0000AD4E604F1080130461E
:10415000FDF753FDDAF80010EEE6B2F5AA7F04D8B9
:10416000DA0B77324FEA420C2DE740F254518A4283
:1041700004D89A0C7C324FEA420C24E74FF0FC0C36
:104180007E2220E77B688BE744040020830770B41D
:10419000C9B240D0541E002A3FD003788B4218BFCA
:1041A000431C06D11DE0F4B102788A4204F1FF34C9
:1041B00017D013F0030F184603F10103F3D1032CBA
:1041C00014D884B103788B420BD00519431C02E04C
:1041D00002788A4205D0AB42184603F10103F7D1B9
:1041E000002070BC7047204670BC704741EA012631
:1041F000024646EA06461046043203687340A3F1BD
:10420000013525EA030313F0803FDAD1043C032C87
:104210001046F0D8D5E71446D1E71046E1E700BFD5
:1042200070B4840746D0541E002A41D0CDB2034654
:1042300002E0621EE4B3144603F8015B9A07F8D16A
:10424000032C2ED9CDB245EA05250F2C45EA0545AC
:1042500019D903F110022646103E0F2E42F8105CC9
:1042600042F80C5C42F8085C42F8045C02F110026F
:10427000F2D8A4F1100222F00F0204F00F04103261
:10428000032C13440DD91E462246043A032A46F84D
:10429000045BFAD8221F22F003020432134404F014
:1042A00003042CB1C9B21C4403F8011BA342FBD187
:1042B00070BC704714460346C2E700BF0FB400B598
:1042C000074983B004AB086853F8042B8168019355
:1042D00002F0BEFB03B05DF804EB04B0704700BF12
:1042E000400400202DE9F04F174683B00E46002908
:1042F00000F0E780814607F10B05FDF7B7FC56F8A3
:10430000043C162D23F00304A6F108084CD8102213
:104310001546AF424DD8944280F28480DFF8ACB3AA
:10432000DBF8080008EB0401884200F0D6804868FA
:1043300020F0010E8E44DEF804E01EF0010F3FD1A4
:1043400020F003002044904280F2C180DB0700F19E
:104350008F8056F8083CC3EB080ADAF8043023F0E3
:10436000030300EB030E964534DBCB688A6857469F
:10437000D3609A6057F8081FDAF80C30CB60221F20
:10438000242A996000F23681132A40F2FD803368B6
:10439000CAF808307368CAF80C301B2A00F2408152
:1043A00008360AF11003F0E025F00705002D2A4633
:1043B000AFDA0C230020C9F8003003B0BDE8F08F5D
:1043C000D90755D456F8083CC3EB080ADAF804308C
:1043D00023F00303234493424ADB5746DAF80C10D8
:1043E00057F8080F221F242AC160886000F20E814E
:1043F000132A40F209813168CAF808107168CAF8B6
:104400000C101B2A00F2218108360AF110023168D3
:10441000116071685160B16891601C46DAF804302F
:104420003E46D046621B0F2A03F001030ED82343F9
:104430004444C8F80430636843F0010363604846AD
:10444000FDF718FC304603B0BDE8F08F08EB05011E
:104450001D4342F001030A44C8F804504B605368FE
:1044600043F00103083153604846FDF7C6FBE6E719
:1044700039464846FDF7BDFB0746D8B156F8043C1F
:1044800023F001024244A0F10801914200F0AC8007
:10449000221F242A00F29980132A6AD80346324642
:1044A000116819605168596092689A6031464846AF
:1044B000FDF7A3FB4846FDF7DDFB384603B0BDE83A
:1044C000F08F114603B0BDE8F04FFDF792BBCA680C
:1044D00089680446CA609160A4E7416821F003013D
:1044E000214405F1100081425BDADB07C0D456F8A5
:1044F000083CC3EB080ADAF8043023F0030301EBAD
:10450000030C60453FF766AF5746DAF80C3057F8B2
:10451000081F221F242ACB60996000F2B880132A5A
:1045200040F2A9803368CAF808307368CAF80C30C2
:104530001B2A00F2B58008360AF1100332681A60AF
:1045400072685A60B2689A600AEB0502C5EB0C0308
:1045500043F00103CBF808205360DAF8043003F08D
:1045600001031D434846CAF80450FDF783FB384653
:1045700069E733680360736843601B2A29D800F138
:10458000080306F108028BE73B4632681A6072683E
:104590005A60B2689A603E467446DAF80430D046F3
:1045A00040E708EB05024B1B43F00103CBF8082062
:1045B000536056F8043C03F001031D43484646F897
:1045C000045CFDF757FB30463DE7314605F0C8F87F
:1045D0006CE7B3688360F368C360242A2CD000F1D1
:1045E000100306F110025BE750F8042C22F00302DE
:1045F000144417E73146384674463E4605F0B0F895
:10460000D046DAF804300DE73A4600E7314638463E
:104610001C463E4605F0A4F8D046DAF8043001E71F
:10462000B368CAF81030F368CAF81430242A18D0D6
:1046300010360AF11803A8E733690361736943610F
:1046400006F1180200F118032AE7B168CAF8101041
:10465000F168CAF81410242A0FD010360AF1180293
:10466000D5E63369CAF818307369CAF81C301836B1
:104670000AF1200389E73B4660E73269CAF818204F
:104680007269CAF81C2018360AF12002BFE63146CA
:104690003846CDF804C005F063F8DDF804C053E7F0
:1046A000B368CAF81030F368CAF81430242A03D06B
:1046B00010360AF1180341E73369CAF818307369F4
:1046C000CAF81C3018360AF1200337E744040020EA
:1046D00038B5074C0023054608462360FDF79EFACF
:1046E000431C00D038BD2368002BFBD02B6038BDA5
:1046F0000C1400201F2938B522D8D0F8DC2205463A
:104700000C469AB152F8213083B1012B0CD0591CC0
:1047100006D00025204642F824509847284638BD48
:1047200016230360012038BD002038BD284600F064
:1047300029F8224601462846BDE8384000F00EB868
:10474000162303604FF0FF3038BD00BF024B014617
:104750001868FFF7CFBF00BF4004002038B5084CF1
:104760000023054608461146236005F0FDFC431C66
:1047700000D038BD2368002BFBD02B6038BD00BFB4
:104780000C14002005F0E8BC10B50C46B1F90E1071
:1047900005F03EFB002803DB236D0344236510BDB9
:1047A000A38923F48053A38110BD00BF2DE9F041FC
:1047B00016468A891D46D3050C46074606D50022B3
:1047C000B1F90E10022304F047FFA289B4F90E10CC
:1047D00022F48052A281384632462B46BDE8F04191
:1047E00003F0ACBB10B50C46B1F90E1004F034FF69
:1047F000A389421C0EBF23F4805343F480532065E9
:10480000A38110BDB1F90E1003F0DABC20F0030152
:1048100010F00300C0F1000051F8043B00F1040C5B
:104820004FEACC0C6FF000021CBF22FA0CF21343CB
:104830004FF0010C4CEA0C2C4CEA0C4CA3EB0C0294
:1048400022EA030212EACC1204BF51F8043B0430FE
:10485000F4D0C2F1000102EA0102B2FA82F2C2F11E
:104860001F0200EBD20070472DE9F04FC3B089461C
:104870000A920E93089004F0EBFE03681793184613
:10488000FFF7C4FFB9F80C3018901A0604D5D9F810
:104890001030002B01F0A1809FED997B8DED147BF2
:1048A000002332AF139327932693169319930B93F8
:1048B00025973C464E460A9D2B78002B00F0A98098
:1048C000252B02D1A5E0252B03D015F8013F002BA5
:1048D000F9D10A9BEB1A73B1269A27990A9820609E
:1048E00001321944072A63602791269272DC08344A
:1048F0000B9A1A440B922B78002B00F0C9870023E7
:10490000691C6D788DF877301A460C9307934FF039
:10491000FF3A4B1CA5F12001582900F2E483DFE89F
:1049200011F07702E203E2037B03E203E203E20316
:10493000E203E203E203F7021402E203FB011802BE
:10494000E2038203C102C102C102C102C102C1026B
:10495000C102C102C102E203E203E203E203E20395
:10496000E203E203E203E203E203D0029103E20383
:104970009103E203E203E203E2037403E203E203CE
:104980000C03E203E203E203E203E2032A03E2038D
:10499000E2034403E203E203E203E203E203E2038D
:1049A000E203E203E203E2035F03330291039103B4
:1049B000910305033302E203E203ED02E203850201
:1049C0000202CB037E02E2039902E2037A00E203D1
:1049D000E203510208980793314625AA05F058FAD8
:1049E00050B93C46079B83E70898314625AA05F055
:1049F0004FFA002800F08C81B146B9F80C3013F062
:104A0000400F0B9B18BF4FF0FF33184643B0BDE873
:104A1000F08F0A9D6FE70A93079B980640F1B482D6
:104A20000E9B03F1070929F0070303F10802D3E9FC
:104A300000890E9201234FF0000C8DF877C0CDF85D
:104A400044A0BAF1000F03DB079A22F0800207921C
:104A500058EA090240F05783BAF1000F00F05C8475
:104A6000012B00F05A83022B00F09A8439464FEA5A
:104A7000D80242EA49724FEAD90008F0070381469A
:104A80009046303358EA090201F8013DEFD1079A08
:104A90001091D20700F16E857B1A0D930D9A924505
:104AA0005346B8BF1346099300231293BCF1000F7D
:104AB00002D0099B01330993079B13F002030F9364
:104AC00002D0099B02330993079B13F0840940F03D
:104AD00017830C9B099AC2EB0308B8F1000F40F34F
:104AE0000F83B8F1100F2799269ADFF81CA030DD4C
:104AF00053464FF0100BC246A8461D460DE000BFBE
:104B0000000000000000000054AD0000AAF1100AEF
:104B1000BAF1100F04F1080417DD01321031072A31
:104B20002791269284E82008F0DD0898314625AACE
:104B300005F0AEF900287FF45FAFAAF1100ABAF1D0
:104B4000100F2799269A3C46E7DC2B464546D0466F
:104B50009A46013208EB010B072ACDF89CB0269249
:104B6000C4F800A0C4F8048000F37E849DF877C0E8
:104B70000834BCF1000F0FD0269B01330BF1010B61
:104B80000DF177010122072BCDF89CB0269384E824
:104B9000060000F3EA8308340F9B73B1269B0133B0
:104BA0000BF1020B1EA90222072BCDF89CB0269315
:104BB00084E8060000F3CD830834B9F1800F00F0DB
:104BC0001583119B0D9AC2EB030ABAF1000F3CDD6D
:104BD000BAF1100F269ADFF864942BDD49465B4644
:104BE000A9464FF01008DDF820B00D4606E0AAF106
:104BF000100ABAF1100F04F1080417DD0132103366
:104C0000072A2793269284E82001F0DD5846314692
:104C100025AA05F03DF900287FF4EEAEAAF1100AAE
:104C2000BAF1100F279B269A3C46E7DC9B462B46A1
:104C30004D4699460132D344072ACDF89CB02692BE
:104C400084E8000600F379830834079BD90500F156
:104C50007082269B0D99109A226001338B44072B9A
:104C6000CDF89CB06160269300F34A830834079B1B
:104C70005A0741D50C9B099A9D1A002D3CDD102D39
:104C8000269BDFF8BCA323DD4FF010085A46DDF861
:104C9000209004E0103D102D04F1080417DD0133CD
:104CA0001032072B27922693C4F800A0C4F8048082
:104CB000F0DD4846314625AA05F0EAF800287FF4E1
:104CC0009BAE103D102D279A269B3C46E7DC934671
:104CD0000133AB44072BCDF89CB02693C4F800A059
:104CE000656009DD0898314625AA05F0D1F800284D
:104CF0007FF482AEDDF89CB00B9B099A0C998A4236
:104D0000ACBF9B185B180B93BBF1000F7FF46CAE2C
:104D1000002326933C46CEE5194607981D7840F0BF
:104D200004000790F5E50A93079B13F0200300F0B9
:104D30000E810E9B03F1070929F0070303F1080216
:104D4000D3E900890E92002375E61D7819462B22BF
:104D5000DFE51D782A2D03F1010100F0BA87A5F1E6
:104D6000300009280B464FF0000A3FF6D3AD13F888
:104D7000015B0AEB8A0A00EB4A0AA5F13000092818
:104D8000F5D94AEAEA7AC5E50A93079B8DF87720B8
:104D90009B0640F1A1800E9B03F1070929F007094A
:104DA000D9E9002309F108010E9190469946002A9D
:104DB00073F10003C0F20E849DF877C0CDF844A0D3
:104DC00001233EE60A939B4B1693079B8DF87720B1
:104DD0009B0640F1F3800E9B03F1070929F00703BE
:104DE000D3E9008903F108020E92079BD90740F12D
:104DF000F58058EA090300F0F180079A8DF87950A0
:104E0000302342F002028DF878300792022312E636
:104E10001D781946002A7FF47CAD202279E5079998
:104E200041F0200107911D78194672E50A93079B0E
:104E30008DF877209A0640F1AE840B990E9A4FEACE
:104E4000E179136808468846043249460E92C3E960
:104E5000000130E50E9A0A93136810934FF0000B8F
:104E60008DF877B002F10409002B00F04886BAF102
:104E7000000F1098C0F2F68559465246FFF786F9A2
:104E8000002800F07986109BCDF844B0C31A0D932A
:104E9000CDF8389023EAE3730993CDF848B09DF834
:104EA00077C003E6A5F13000002113F8015B01EBA8
:104EB000810100EB4101A5F130000928F5D90C91E1
:104EC00028E50A93079B8DF8772043F0100307939A
:104ED000079B9B063FF55FAF079BD80600F16B83EE
:104EE000079B590640F167830E99B1F900800431A0
:104EF0004FEAE87942464B460E9158E71D780799EC
:104F00006C2D00F0D18441F010010791194600E5A5
:104F10000E9D29680C9108460028294601F10401DC
:104F2000C0F2C9840E911D781946F2E4079941F048
:104F3000400107911D781946EBE40A93079B43F063
:104F400010030793079B13F020037FF4F2AE079A38
:104F500012F0100240F01C83079B13F0400300F096
:104F600017830E9913460A460432B1F800800E9258
:104F70004FF000095FE50A93079B43F01003079386
:104F8000079B98063FF54CAD079BD90600F10983B6
:104F9000079B5A0640F105830E9AB2F8008004324E
:104FA0004FF0000901230E9245E50A93224B169318
:104FB000079B8DF877209B063FF50DAF079BD80622
:104FC00040F1DA830E9A13461B689846079B043219
:104FD000D9070E924FF000093FF50BAF02232AE5E7
:104FE0000E990A930A688DF8A0200023012204314B
:104FF0009C4609920E918DF8773028ABCDF844C0CD
:10500000CDF848C00D92109356E5079941F008017C
:1050100007911D7819467CE4079941F00101079139
:105020001D78194675E4079941F0800107911D78B4
:1050300019466EE488AD000074AD000044AD000078
:1050400054AD00000A93079B8DF8772013F0080FEA
:105050000E9BD34603F1070900F0848329F0070370
:1050600093ED007B8DED147B03F108020E92DDE9D8
:10507000140104F0E1FE0128DDE9140140F0588339
:1050800000220023FBF7E2FF002840F06D859DF829
:1050900077C0079BBD4ADFF800E323F08003079346
:1050A000134603210020472DD8BF73460991119064
:1050B00010930D911290F9E40E9807990A933022FB
:1050C00003688DF878200246782541F00201043209
:1050D0009846AF4B169307910E924FF000098DF84A
:1050E00079500223A7E40A938DF87720002D00F071
:1050F000CF83002301229C4609928DF8A0507AE7C5
:10510000DDF89CB035E5012B7FF4ADACB9F1000FB3
:1051100008BFB8F10A0F80F00D820DF5847B08F10D
:1051200030080BF8418DCBEB07030D93CDF840B061
:10513000B4E4652D40F3A080DDE9140100220023D2
:10514000FBF77AFF002800F04481269B914A2260F9
:1051500001330BF1010B0122072BCDF89CB02693F4
:10516000626000F33D8308341F9B139A934203DB74
:10517000079BDA077FF57BAD269B1899179A22606B
:1051800001338B44072BCDF89CB06160269300F36C
:1051900099830834139B5D1E002D7FF768AD102D99
:1051A000269BDFF8F89140F3B9814FF010085A467A
:1051B000DDF820A004E00834103D102D40F3AD814F
:1051C00001331032072B27922693C4F80090C4F8BD
:1051D0000480F0DD5046314625AA04F059FE00282F
:1051E0007FF40AAC279A269B3C46E5E70C9B099A7C
:1051F000C2EB030ABAF1000F7FF7E3ACBAF1100F6C
:10520000269ADFF898912BDD49465B46A9464FF078
:105210001008DDF820B00D4606E0AAF1100ABAF138
:10522000100F04F1080417DD01321033072A279309
:10523000269284E82001F0DD5846314625AA04F084
:1052400027FE00287FF4D8ABAAF1100ABAF1100F9C
:10525000279B269A3C46E7DC9B462B464D469946C3
:105260000132D344072ACDF89CB0269284E8000688
:1052700000F351820834A4E4139B269D012B40F3D4
:105280001F82109B236001350BF101030122072DC2
:1052900027932695626000F325820834189961608F
:1052A000013503EB010B072D179BCDF89CB026951C
:1052B000236000F3238208340023DDE91401002277
:1052C000FBF7BAFE139B002840F0DD80109A013BEB
:1052D000013501329B44072D2695CDF89CB0226004
:1052E000636000F30D810834199A626001359344BC
:1052F00021AB072DCDF89CB0269523607FF7B6AC87
:105300000898314625AA04F0C3FD00287FF474AB49
:10531000DDF89CB03C46AAE4002B32D1079BD807AD
:105320002FD50DF5847B30230BF8413DCBEB0703E4
:105330000D93CDF840B0FFF7B1BB0898314625AAD0
:1053400004F0A6FD00287FF457ABDDF89CB03C4686
:105350007BE40898314625AA04F09AFD00287FF4E2
:105360004BABDDF89CB03C4627E40898314625AAB3
:1053700004F08EFD00287FF43FABDDF89CB03C4686
:105380000AE4CDF834A01097FFF788BB68AD0000A1
:1053900088AD0000A4AD000064AD000044AD000085
:1053A0001698BB464FEA181308F00F0143EA097339
:1053B0004FEA191298469146435C0BF8013D58EAB2
:1053C0000903EFD15B46CDF840B0FB1A0D93FFF710
:1053D00065BB1F9D002D40F30F82139A12998A42DC
:1053E0001346A8BF0B461D461099002D01EB020A7B
:1053F0000BDD269B21600133AB44072BCDF89CB01D
:105400006560269300F357830834129B002DA8BFD4
:105410005B1B002B1D4640F3F580102D269BDFF80B
:10542000089640F3D0815A464FF01008DDF820B0BE
:1054300004E00834103D102D40F3C48101331032D4
:10544000072B27922693C4F80090C4F80480F0DD5F
:105450005846314625AA04F01BFD00287FF4CCAA4B
:10546000279A269B3C46E5E70898314625AA04F092
:105470000FFD00287FF4C0AA9DF877C0DDF89CB02E
:105480003C46FFF776BB03F1FF38B8F1000F7FF71A
:105490002BAFB8F1100FDFF8909525DD5B464FF08C
:1054A000100ADDF820B006E0A8F11008B8F1100FDE
:1054B00004F1080417DD01351033072D27932695D5
:1054C00084E80006F0DD5846314625AA04F0E0FCE9
:1054D00000287FF491AAA8F11008B8F1100F279BBB
:1054E000269D3C46E7DC9B460135C344072DCDF89D
:1054F0009CB02695C4F80090C4F804807FF7F3AE02
:105500000898314625AA04F0C3FC00287FF474AA49
:10551000DDF89CB0269D3C46E6E693460133AB445D
:10552000072BCDF89CB02693C4F8009065607FF7F8
:105530009DABE5E6BB46CDF824C0404649460A226D
:105540000023FBF723FE3032404649460BF8012D7D
:1055500000230A22FBF71AFE8046894658EA09030F
:10556000EBD15B46FB1ADDF824C0CDF840B00D93BB
:10557000FFF794BA302B109B3FF427AF013B1A463C
:105580001093BA1A30230D9201F8013CFFF786BA46
:105590000E990A6804310E9190464FF00009FFF70A
:1055A0004ABA0E990A68043101230E9190464FF0D1
:1055B0000009FFF740BA0E9A136898464FEAE3795C
:1055C0001346043342460E93002A4B4673F1000300
:1055D000BFF6F2AB4FF02D0CD8F1000869EB49098A
:1055E0008DF877C0CDF844A00123FFF72ABA0898B8
:1055F000314625AA04F04CFC00287FF4FDA9DDF813
:105600009CB03C46109A12991F9B0A449046139AEC
:10561000934246DB079AD00743D4139AC8EB0A0596
:10562000D31A9D42A8BF1D46002D0CDD269AC4F852
:1056300000800132AB44072ACDF89CB06560269209
:1056400000F371820834002DACBF5D1B1D46002D98
:105650007FF70DAB102D269BDFF8CC937FF75EAF65
:105660004FF010085A46DDF820A004E00834103D41
:10567000102D7FF752AF01331032072B279226935C
:10568000C4F80090C4F80480F0DD5046314625AAE5
:1056900004F0FEFB00287FF4AFA9279A269B3C4626
:1056A000E5E7269A18981799216001328344072A62
:1056B000CDF89CB06060269200F309820834ACE714
:1056C000079BD9073FF5DDAD109B236001350BF13A
:1056D000010B0123072DCDF89CB0269563607FF761
:1056E00002AE0DE70898314625AA04F0D1FB002848
:1056F0007FF482A9279B269D3C46CFE5089831463A
:1057000025AA04F0C5FB00287FF476A9DDF89CB03B
:10571000269D3C46D0E50898314625AA04F0B8FB02
:1057200000287FF469A9DDF89CB03C46FFF749BA30
:1057300004F082FB002840F0D1808646B74AB84B7F
:10574000119007989DF877C0CDF848E0032120F02C
:105750008000472DD8BF1A460991079010920D91ED
:10576000FFF7A4B929F0070999ED007B09F10803B7
:105770008DED147B0E937AE4079B0E9A13F0400F85
:1057800013463FF421AC0433B2F800800E934FF07F
:105790000009FFF72ABB079BDB060BD4079B5D06BE
:1057A00008D50E9A136804320E92BDF82C201A8088
:1057B000FFF781B80E9A136804320E920B9A1A60A2
:1057C000FFF779B893460133AB44072BCDF89CB073
:1057D0002693C4F8009065603FF709AF083411E7DD
:1057E0000898314625AA04F053FB00287FF404A949
:1057F000DDF89CB03C46B7E4269B8A4A2260013320
:105800000BF1010B0122072BCDF89CB026936260AF
:1058100000F3F38008342DB9139B1BB9079BDB07FA
:105820007FF525AA269B1898179A226001330BEB67
:105830000001072B27916060269300F3F38104F1A8
:1058400008026D42002D40F3FC80102DDFF8D89146
:1058500040F34A811024DDF8208004E00832103D36
:10586000102D40F3418101331031072B27912693EE
:10587000C2F800905460F1DD4046314625AA04F09C
:1058800007FB00287FF4B8A82799269B3A46E6E74D
:10589000279BB146002B3FF4B0A80898314625AAB3
:1058A00004F0F6FAFFF7A9B841F0200107915D78FE
:1058B000591CFFF72EB80C980E9140420C901946D7
:1058C000FFF72BBA0898314625AA04F0E1FA002820
:1058D0007FF492A8DDF89CB03C465BE425F0200301
:1058E000BAF1FF3F099300F09580472B05D1BAF13B
:1058F000000F14BFD3464FF0010B159B079A002BE6
:1059000042F480720F92C0F2A8819DED147B8DED60
:105910001A7B4FF0000A662D00F0AE80462D00F095
:10592000AB80099B452B0CBF0BF10109D946022026
:105930001FA920AA23AB8DE80102039204930291D0
:105940000898DDE91A2302F0E3FC672D109002D0DD
:10595000472D40F0A180079BDB0740F19481109B0D
:1059600003EB0908DDE91A0100220023FBF764FBC1
:10597000002840F0FF80239B984506D930215A1C0F
:1059800023921970239B9845F9D8109A9B1A139368
:10599000099B472B1F9B00F0E080652D40F3FA80A8
:1059A000662D129300F06281139B129A934200F3CA
:1059B0004681079BD90700F1688122EAE2730D92C4
:1059C000BAF1000F40F0BE8009930F9B0793CDF80A
:1059D00044A09DF877C0FFF769B808984021FCF70C
:1059E00008F9C9F80000C9F81000002800F09981F2
:1059F0004023C9F81430FEF74FBF0898314625AA56
:105A000004F046FA00287EF4F7AF1F9DDDF89CB045
:105A10003C4600E74FF0060B6FE700BF70AD00009B
:105A20006CAD0000A4AD000044AD00000898314604
:105A300025AA04F02DFA00287EF4DEAF2799269BD4
:105A40003A46139C5460013301EB040B072B109969
:105A5000CDF89CB0269311603FF752AC02F10804D8
:105A6000FFF705B9CDF844B0FEF7D0FECDF8389079
:105A70000D900346FFF70EBA03201FA920AA23ABFF
:105A80008DE801080392049302910898DDE91A2336
:105A900002F03EFCD9461090109B03EB0908099BCD
:105AA000462B7FF45FAF109B1B78302B00F00381F7
:105AB0001F9B984456E70898314625AA04F0E8F958
:105AC00000287EF499AFDDF89CB03C469DE4089830
:105AD000314625AA04F0DCF900287EF48DAF1F9B27
:105AE000DDF89CB03C4698E501332944072B27910B
:105AF0002693C2F80090556098DC0832A1E753461F
:105B0000062B28BF06230D9323EAE373DDF840C07C
:105B10000993874BCDF83890CDF844C0CDF848C0F4
:105B20001093FEF7C3BF0898314625AA04F0B0F9D8
:105B300000287EF461AF1F9B139ADDF89CB0D31A46
:105B40003C4680E509930F9B07934FF02D0C0023F3
:105B50008DF877C01193FEF7ACBFDA1C19DB9B45BB
:105B600017DB129367251FE74FF02D0C8DF877C0D8
:105B7000FFF78FBA434608E72AEAEA731190CDF897
:105B8000389012909DF877C00993CDF834A0FEF7B5
:105B90008DBF023D013B002B1F93BABF5B422D22FC
:105BA0002B22092B8DF884508DF885207BDD0DF19B
:105BB000930E70465F4A82FB0321DA17C2EBA10203
:105BC00002EB8201A3EB410303F13001092A1346E2
:105BD00000F8011DEEDC02463033D9B202F8011D97
:105BE000964540F29B800DF18602034601E013F8D2
:105BF000011B02F8011B7345F9D125AB1B1A0DF1EE
:105C00008602134421AA9B1A139A1993012A13445A
:105C10000D9374DD0D9B002201330D93129223EA44
:105C2000E373CDE60898314625AA04F031F900283F
:105C30007EF4E2AE1F9D2799269B3A4601E6129B11
:105C4000002BD8BFC3F10208139BC8BF4FF0010857
:105C500043440D9323EAE373B2E6DDE9140101F155
:105C600000431A901B934FF02D0A54E6002B3DDDA4
:105C7000BBF1000F0FD1079BDB070CD4129A0D92DA
:105C800022EAE2739CE6239B7FE6129B01330D938D
:105C900023EAE37394E6129B0BF1010843440D934E
:105CA00023EAE3738CE6303330228DF887308DF8A9
:105CB000862022ABA6E7DDE91A0100220023FBF7CC
:105CC000BBF900287FF4F4AEC9F101031F93984497
:105CD00048E60E9DD5F800A028460430BAF1000F22
:105CE0005D780E90BEF615AEFEF711BEBBF1000F4B
